{
	"data": {
		"bytecode": {
			"linkReferences": {},
			"object": "6080604052602a6000806101000a81548160ff021916908360ff16021790555061ea60600060016101000a81548167ffffffffffffffff021916908367ffffffffffffffff160217905550620f4240600155609c600260006101000a81548161ffff021916908360010b61ffff160217905550620dbba06002806101000a8154816effffffffffffffffffffffffffffff0219169083600e0b6effffffffffffffffffffffffffffff160217905550624c4b4060035560008054906101000a900460ff1660ff16600460006101000a81548167ffffffffffffffff021916908367ffffffffffffffff160217905550600154600460086101000a81548167ffffffffffffffff021916908367ffffffffffffffff160217905550600260009054906101000a900460010b600460106101000a81548160ff021916908360ff16021790555060028054906101000a9004600e0b600e0b60055560015460065534801561016957600080fd5b506101f9806101796000396000f3fe608060405234801561001057600080fd5b50600436106100625760003560e01c806302b037a7146100675780632b74311b1461008f5780639fe40a17146100b7578063af489aa614610106578063d5d240c114610124578063ed4885e514610145575b600080fd5b61006f610163565b604051808267ffffffffffffffff16815260200191505060405180910390f35b61009761017d565b604051808267ffffffffffffffff16815260200191505060405180910390f35b6100e6600480360360208110156100cd57600080fd5b81019080803560ff169060200190929190505050610197565b604051808267ffffffffffffffff16815260200191505060405180910390f35b61010e6101a4565b6040518082815260200191505060405180910390f35b61012c6101aa565b604051808260ff16815260200191505060405180910390f35b61014d6101bd565b6040518082815260200191505060405180910390f35b600460009054906101000a900467ffffffffffffffff1681565b600460089054906101000a900467ffffffffffffffff1681565b60008160ff169050919050565b60065481565b600460109054906101000a900460ff1681565b6005548156fea2646970667358221220a92a0fbf36de09688315e5559c4b01524e2c3efedc1f65f255a2035c69b41d6064736f6c634300060c0033",
			"opcodes": "PUSH1 0x80 PUSH1 0x40 MSTORE PUSH1 0x2A PUSH1 0x0 DUP1 PUSH2 0x100 EXP DUP2 SLOAD DUP2 PUSH1 0xFF MUL NOT AND SWAP1 DUP4 PUSH1 0xFF AND MUL OR SWAP1 SSTORE POP PUSH2 0xEA60 PUSH1 0x0 PUSH1 0x1 PUSH2 0x100 EXP DUP2 SLOAD DUP2 PUSH8 0xFFFFFFFFFFFFFFFF MUL NOT AND SWAP1 DUP4 PUSH8 0xFFFFFFFFFFFFFFFF AND MUL OR SWAP1 SSTORE POP PUSH3 0xF4240 PUSH1 0x1 SSTORE PUSH1 0x9C PUSH1 0x2 PUSH1 0x0 PUSH2 0x100 EXP DUP2 SLOAD DUP2 PUSH2 0xFFFF MUL NOT AND SWAP1 DUP4 PUSH1 0x1 SIGNEXTEND PUSH2 0xFFFF AND MUL OR SWAP1 SSTORE POP PUSH3 0xDBBA0 PUSH1 0x2 DUP1 PUSH2 0x100 EXP DUP2 SLOAD DUP2 PUSH15 0xFFFFFFFFFFFFFFFFFFFFFFFFFFFFFF MUL NOT AND SWAP1 DUP4 PUSH1 0xE SIGNEXTEND PUSH15 0xFFFFFFFFFFFFFFFFFFFFFFFFFFFFFF AND MUL OR SWAP1 SSTORE POP PUSH3 0x4C4B40 PUSH1 0x3 SSTORE PUSH1 0x0 DUP1 SLOAD SWAP1 PUSH2 0x100 EXP SWAP1 DIV PUSH1 0xFF AND PUSH1 0xFF AND PUSH1 0x4 PUSH1 0x0 PUSH2 0x100 EXP DUP2 SLOAD DUP2 PUSH8 0xFFFFFFFFFFFFFFFF MUL NOT AND SWAP1 DUP4 PUSH8 0xFFFFFFFFFFFFFFFF AND MUL OR SWAP1 SSTORE POP PUSH1 0x1 SLOAD PUSH1 0x4 PUSH1 0x8 PUSH2 0x100 EXP DUP2 SLOAD DUP2 PUSH8 0xFFFFFFFFFFFFFFFF MUL NOT AND SWAP1 DUP4 PUSH8 0xFFFFFFFFFFFFFFFF AND MUL OR SWAP1 SSTORE POP PUSH1 0x2 PUSH1 0x0 SWAP1 SLOAD SWAP1 PUSH2 0x100 EXP SWAP1 DIV PUSH1 0x1 SIGNEXTEND PUSH1 0x4 PUSH1 0x10 PUSH2 0x100 EXP DUP2 SLOAD DUP2 PUSH1 0xFF MUL NOT AND SWAP1 DUP4 PUSH1 0xFF AND MUL OR SWAP1 SSTORE POP PUSH1 0x2 DUP1 SLOAD SWAP1 PUSH2 0x100 EXP SWAP1 DIV PUSH1 0xE SIGNEXTEND PUSH1 0xE SIGNEXTEND PUSH1 0x5 SSTORE PUSH1 0x1 SLOAD PUSH1 0x6 SSTORE CALLVALUE DUP1 ISZERO PUSH2 0x169 JUMPI PUSH1 0x0 DUP1 REVERT JUMPDEST POP PUSH2 0x1F9 DUP1 PUSH2 0x179 PUSH1 0x0 CODECOPY PUSH1 0x0 RETURN INVALID PUSH1 0x80 PUSH1 0x40 MSTORE CALLVALUE DUP1 ISZERO PUSH2 0x10 JUMPI PUSH1 0x0 DUP1 REVERT JUMPDEST POP PUSH1 0x4 CALLDATASIZE LT PUSH2 0x62 JUMPI PUSH1 0x0 CALLDATALOAD PUSH1 0xE0 SHR DUP1 PUSH4 0x2B037A7 EQ PUSH2 0x67 JUMPI DUP1 PUSH4 0x2B74311B EQ PUSH2 0x8F JUMPI DUP1 PUSH4 0x9FE40A17 EQ PUSH2 0xB7 JUMPI DUP1 PUSH4 0xAF489AA6 EQ PUSH2 0x106 JUMPI DUP1 PUSH4 0xD5D240C1 EQ PUSH2 0x124 JUMPI DUP1 PUSH4 0xED4885E5 EQ PUSH2 0x145 JUMPI JUMPDEST PUSH1 0x0 DUP1 REVERT JUMPDEST PUSH2 0x6F PUSH2 0x163 JUMP JUMPDEST PUSH1 0x40 MLOAD DUP1 DUP3 PUSH8 0xFFFFFFFFFFFFFFFF AND DUP2 MSTORE PUSH1 0x20 ADD SWAP2 POP POP PUSH1 0x40 MLOAD DUP1 SWAP2 SUB SWAP1 RETURN JUMPDEST PUSH2 0x97 PUSH2 0x17D JUMP JUMPDEST PUSH1 0x40 MLOAD DUP1 DUP3 PUSH8 0xFFFFFFFFFFFFFFFF AND DUP2 MSTORE PUSH1 0x20 ADD SWAP2 POP POP PUSH1 0x40 MLOAD DUP1 SWAP2 SUB SWAP1 RETURN JUMPDEST PUSH2 0xE6 PUSH1 0x4 DUP1 CALLDATASIZE SUB PUSH1 0x20 DUP2 LT ISZERO PUSH2 0xCD JUMPI PUSH1 0x0 DUP1 REVERT JUMPDEST DUP2 ADD SWAP1 DUP1 DUP1 CALLDATALOAD PUSH1 0xFF AND SWAP1 PUSH1 0x20 ADD SWAP1 SWAP3 SWAP2 SWAP1 POP POP POP PUSH2 0x197 JUMP JUMPDEST PUSH1 0x40 MLOAD DUP1 DUP3 PUSH8 0xFFFFFFFFFFFFFFFF AND DUP2 MSTORE PUSH1 0x20 ADD SWAP2 POP POP PUSH1 0x40 MLOAD DUP1 SWAP2 SUB SWAP1 RETURN JUMPDEST PUSH2 0x10E PUSH2 0x1A4 JUMP JUMPDEST PUSH1 0x40 MLOAD DUP1 DUP3 DUP2 MSTORE PUSH1 0x20 ADD SWAP2 POP POP PUSH1 0x40 MLOAD DUP1 SWAP2 SUB SWAP1 RETURN JUMPDEST PUSH2 0x12C PUSH2 0x1AA JUMP JUMPDEST PUSH1 0x40 MLOAD DUP1 DUP3 PUSH1 0xFF AND DUP2 MSTORE PUSH1 0x20 ADD SWAP2 POP POP PUSH1 0x40 MLOAD DUP1 SWAP2 SUB SWAP1 RETURN JUMPDEST PUSH2 0x14D PUSH2 0x1BD JUMP JUMPDEST PUSH1 0x40 MLOAD DUP1 DUP3 DUP2 MSTORE PUSH1 0x20 ADD SWAP2 POP POP PUSH1 0x40 MLOAD DUP1 SWAP2 SUB SWAP1 RETURN JUMPDEST PUSH1 0x4 PUSH1 0x0 SWAP1 SLOAD SWAP1 PUSH2 0x100 EXP SWAP1 DIV PUSH8 0xFFFFFFFFFFFFFFFF AND DUP2 JUMP JUMPDEST PUSH1 0x4 PUSH1 0x8 SWAP1 SLOAD SWAP1 PUSH2 0x100 EXP SWAP1 DIV PUSH8 0xFFFFFFFFFFFFFFFF AND DUP2 JUMP JUMPDEST PUSH1 0x0 DUP2 PUSH1 0xFF AND SWAP1 POP SWAP2 SWAP1 POP JUMP JUMPDEST PUSH1 0x6 SLOAD DUP2 JUMP JUMPDEST PUSH1 0x4 PUSH1 0x10 SWAP1 SLOAD SWAP1 PUSH2 0x100 EXP SWAP1 DIV PUSH1 0xFF AND DUP2 JUMP JUMPDEST PUSH1 0x5 SLOAD DUP2 JUMP INVALID LOG2 PUSH5 0x6970667358 0x22 SLT KECCAK256 0xA9 0x2A 0xF 0xBF CALLDATASIZE 0xDE MULMOD PUSH9 0x8315E5559C4B01524E 0x2C RETURNDATACOPY INVALID 0xDC 0x1F PUSH6 0xF255A2035C69 0xB4 SAR PUSH1 0x64 PUSH20 0x6F6C634300060C00330000000000000000000000 "
		},
		"gasEstimates": {
			"creation": {
				"codeDepositCost": "101000",
				"executionCost": "230626",
				"totalCost": "331626"
			},
			"external": {
				"casteo_1()": "1025",
				"casteo_2()": "1097",
				"casteo_3()": "1163",
				"casteo_4()": "1093",
				"casteo_5()": "1049",
				"convertir(uint8)": "340"
			}
		},
		"methodIdentifiers": {
			"casteo_1()": "02b037a7",
			"casteo_2()": "2b74311b",
			"casteo_3()": "d5d240c1",
			"casteo_4()": "ed4885e5",
			"casteo_5()": "af489aa6",
			"convertir(uint8)": "9fe40a17"
		}
	},
	"abi": [
		{
			"inputs": [],
			"name": "casteo_1",
			"outputs": [
				{
					"internalType": "uint64",
					"name": "",
					"type": "uint64"
				}
			],
			"stateMutability": "view",
			"type": "function"
		},
		{
			"inputs": [],
			"name": "casteo_2",
			"outputs": [
				{
					"internalType": "uint64",
					"name": "",
					"type": "uint64"
				}
			],
			"stateMutability": "view",
			"type": "function"
		},
		{
			"inputs": [],
			"name": "casteo_3",
			"outputs": [
				{
					"internalType": "uint8",
					"name": "",
					"type": "uint8"
				}
			],
			"stateMutability": "view",
			"type": "function"
		},
		{
			"inputs": [],
			"name": "casteo_4",
			"outputs": [
				{
					"internalType": "int256",
					"name": "",
					"type": "int256"
				}
			],
			"stateMutability": "view",
			"type": "function"
		},
		{
			"inputs": [],
			"name": "casteo_5",
			"outputs": [
				{
					"internalType": "int256",
					"name": "",
					"type": "int256"
				}
			],
			"stateMutability": "view",
			"type": "function"
		},
		{
			"inputs": [
				{
					"internalType": "uint8",
					"name": "_k",
					"type": "uint8"
				}
			],
			"name": "convertir",
			"outputs": [
				{
					"internalType": "uint64",
					"name": "",
					"type": "uint64"
				}
			],
			"stateMutability": "pure",
			"type": "function"
		}
	]
}