{
	"data": {
		"bytecode": {
			"linkReferences": {},
			"object": "608060405242600055603c600155611c206002556241eb0060035562093a8060045534801561002d57600080fd5b5061022b8061003d6000396000f3fe608060405234801561001057600080fd5b50600436106100935760003560e01c80631fd8d6b4116100665780631fd8d6b4146101105780634f0cea831461012e5780635a9606a41461014c578063d2c5381a1461016a578063e8b1ed291461018857610093565b806301a3487514610098578063108c4abb146100b6578063172f11fc146100d4578063183289fc146100f2575b600080fd5b6100a06101a6565b6040518082815260200191505060405180910390f35b6100be6101b1565b6040518082815260200191505060405180910390f35b6100dc6101bd565b6040518082815260200191505060405180910390f35b6100fa6101c3565b6040518082815260200191505060405180910390f35b6101186101c9565b6040518082815260200191505060405180910390f35b6101366101d6565b6040518082815260200191505060405180910390f35b6101546101dc565b6040518082815260200191505060405180910390f35b6101726101e2565b6040518082815260200191505060405180910390f35b6101906101ef565b6040518082815260200191505060405180910390f35b600060324201905090565b6000610e104201905090565b60015481565b60045481565b600062093a804201905090565b60035481565b60005481565b60006203f4804201905090565b6002548156fea26469706673582212204208640de3df3fc81b71751d78786c65aca97c291e0b8200e7bd840ed5274b4264736f6c634300060c0033",
			"opcodes": "PUSH1 0x80 PUSH1 0x40 MSTORE TIMESTAMP PUSH1 0x0 SSTORE PUSH1 0x3C PUSH1 0x1 SSTORE PUSH2 0x1C20 PUSH1 0x2 SSTORE PUSH3 0x41EB00 PUSH1 0x3 SSTORE PUSH3 0x93A80 PUSH1 0x4 SSTORE CALLVALUE DUP1 ISZERO PUSH2 0x2D JUMPI PUSH1 0x0 DUP1 REVERT JUMPDEST POP PUSH2 0x22B DUP1 PUSH2 0x3D PUSH1 0x0 CODECOPY PUSH1 0x0 RETURN INVALID PUSH1 0x80 PUSH1 0x40 MSTORE CALLVALUE DUP1 ISZERO PUSH2 0x10 JUMPI PUSH1 0x0 DUP1 REVERT JUMPDEST POP PUSH1 0x4 CALLDATASIZE LT PUSH2 0x93 JUMPI PUSH1 0x0 CALLDATALOAD PUSH1 0xE0 SHR DUP1 PUSH4 0x1FD8D6B4 GT PUSH2 0x66 JUMPI DUP1 PUSH4 0x1FD8D6B4 EQ PUSH2 0x110 JUMPI DUP1 PUSH4 0x4F0CEA83 EQ PUSH2 0x12E JUMPI DUP1 PUSH4 0x5A9606A4 EQ PUSH2 0x14C JUMPI DUP1 PUSH4 0xD2C5381A EQ PUSH2 0x16A JUMPI DUP1 PUSH4 0xE8B1ED29 EQ PUSH2 0x188 JUMPI PUSH2 0x93 JUMP JUMPDEST DUP1 PUSH4 0x1A34875 EQ PUSH2 0x98 JUMPI DUP1 PUSH4 0x108C4ABB EQ PUSH2 0xB6 JUMPI DUP1 PUSH4 0x172F11FC EQ PUSH2 0xD4 JUMPI DUP1 PUSH4 0x183289FC EQ PUSH2 0xF2 JUMPI JUMPDEST PUSH1 0x0 DUP1 REVERT JUMPDEST PUSH2 0xA0 PUSH2 0x1A6 JUMP JUMPDEST PUSH1 0x40 MLOAD DUP1 DUP3 DUP2 MSTORE PUSH1 0x20 ADD SWAP2 POP POP PUSH1 0x40 MLOAD DUP1 SWAP2 SUB SWAP1 RETURN JUMPDEST PUSH2 0xBE PUSH2 0x1B1 JUMP JUMPDEST PUSH1 0x40 MLOAD DUP1 DUP3 DUP2 MSTORE PUSH1 0x20 ADD SWAP2 POP POP PUSH1 0x40 MLOAD DUP1 SWAP2 SUB SWAP1 RETURN JUMPDEST PUSH2 0xDC PUSH2 0x1BD JUMP JUMPDEST PUSH1 0x40 MLOAD DUP1 DUP3 DUP2 MSTORE PUSH1 0x20 ADD SWAP2 POP POP PUSH1 0x40 MLOAD DUP1 SWAP2 SUB SWAP1 RETURN JUMPDEST PUSH2 0xFA PUSH2 0x1C3 JUMP JUMPDEST PUSH1 0x40 MLOAD DUP1 DUP3 DUP2 MSTORE PUSH1 0x20 ADD SWAP2 POP POP PUSH1 0x40 MLOAD DUP1 SWAP2 SUB SWAP1 RETURN JUMPDEST PUSH2 0x118 PUSH2 0x1C9 JUMP JUMPDEST PUSH1 0x40 MLOAD DUP1 DUP3 DUP2 MSTORE PUSH1 0x20 ADD SWAP2 POP POP PUSH1 0x40 MLOAD DUP1 SWAP2 SUB SWAP1 RETURN JUMPDEST PUSH2 0x136 PUSH2 0x1D6 JUMP JUMPDEST PUSH1 0x40 MLOAD DUP1 DUP3 DUP2 MSTORE PUSH1 0x20 ADD SWAP2 POP POP PUSH1 0x40 MLOAD DUP1 SWAP2 SUB SWAP1 RETURN JUMPDEST PUSH2 0x154 PUSH2 0x1DC JUMP JUMPDEST PUSH1 0x40 MLOAD DUP1 DUP3 DUP2 MSTORE PUSH1 0x20 ADD SWAP2 POP POP PUSH1 0x40 MLOAD DUP1 SWAP2 SUB SWAP1 RETURN JUMPDEST PUSH2 0x172 PUSH2 0x1E2 JUMP JUMPDEST PUSH1 0x40 MLOAD DUP1 DUP3 DUP2 MSTORE PUSH1 0x20 ADD SWAP2 POP POP PUSH1 0x40 MLOAD DUP1 SWAP2 SUB SWAP1 RETURN JUMPDEST PUSH2 0x190 PUSH2 0x1EF JUMP JUMPDEST PUSH1 0x40 MLOAD DUP1 DUP3 DUP2 MSTORE PUSH1 0x20 ADD SWAP2 POP POP PUSH1 0x40 MLOAD DUP1 SWAP2 SUB SWAP1 RETURN JUMPDEST PUSH1 0x0 PUSH1 0x32 TIMESTAMP ADD SWAP1 POP SWAP1 JUMP JUMPDEST PUSH1 0x0 PUSH2 0xE10 TIMESTAMP ADD SWAP1 POP SWAP1 JUMP JUMPDEST PUSH1 0x1 SLOAD DUP2 JUMP JUMPDEST PUSH1 0x4 SLOAD DUP2 JUMP JUMPDEST PUSH1 0x0 PUSH3 0x93A80 TIMESTAMP ADD SWAP1 POP SWAP1 JUMP JUMPDEST PUSH1 0x3 SLOAD DUP2 JUMP JUMPDEST PUSH1 0x0 SLOAD DUP2 JUMP JUMPDEST PUSH1 0x0 PUSH3 0x3F480 TIMESTAMP ADD SWAP1 POP SWAP1 JUMP JUMPDEST PUSH1 0x2 SLOAD DUP2 JUMP INVALID LOG2 PUSH5 0x6970667358 0x22 SLT KECCAK256 TIMESTAMP ADDMOD PUSH5 0xDE3DF3FC8 SHL PUSH18 0x751D78786C65ACA97C291E0B8200E7BD840E 0xD5 0x27 0x4B TIMESTAMP PUSH5 0x736F6C6343 STOP MOD 0xC STOP CALLER "
		},
		"gasEstimates": {
			"creation": {
				"codeDepositCost": "111000",
				"executionCost": "100188",
				"totalCost": "211188"
			},
			"external": {
				"MasDias()": "284",
				"MasHoras()": "241",
				"MasSegundos()": "219",
				"MasSemanas()": "218",
				"cincuenta_dias()": "1027",
				"dos_horas()": "1093",
				"tiempo_actual()": "1049",
				"un_minuto()": "1050",
				"una_semana()": "1072"
			}
		},
		"methodIdentifiers": {
			"MasDias()": "d2c5381a",
			"MasHoras()": "108c4abb",
			"MasSegundos()": "01a34875",
			"MasSemanas()": "1fd8d6b4",
			"cincuenta_dias()": "4f0cea83",
			"dos_horas()": "e8b1ed29",
			"tiempo_actual()": "5a9606a4",
			"un_minuto()": "172f11fc",
			"una_semana()": "183289fc"
		}
	},
	"abi": [
		{
			"inputs": [],
			"name": "MasDias",
			"outputs": [
				{
					"internalType": "uint256",
					"name": "",
					"type": "uint256"
				}
			],
			"stateMutability": "view",
			"type": "function"
		},
		{
			"inputs": [],
			"name": "MasHoras",
			"outputs": [
				{
					"internalType": "uint256",
					"name": "",
					"type": "uint256"
				}
			],
			"stateMutability": "view",
			"type": "function"
		},
		{
			"inputs": [],
			"name": "MasSegundos",
			"outputs": [
				{
					"internalType": "uint256",
					"name": "",
					"type": "uint256"
				}
			],
			"stateMutability": "view",
			"type": "function"
		},
		{
			"inputs": [],
			"name": "MasSemanas",
			"outputs": [
				{
					"internalType": "uint256",
					"name": "",
					"type": "uint256"
				}
			],
			"stateMutability": "view",
			"type": "function"
		},
		{
			"inputs": [],
			"name": "cincuenta_dias",
			"outputs": [
				{
					"internalType": "uint256",
					"name": "",
					"type": "uint256"
				}
			],
			"stateMutability": "view",
			"type": "function"
		},
		{
			"inputs": [],
			"name": "dos_horas",
			"outputs": [
				{
					"internalType": "uint256",
					"name": "",
					"type": "uint256"
				}
			],
			"stateMutability": "view",
			"type": "function"
		},
		{
			"inputs": [],
			"name": "tiempo_actual",
			"outputs": [
				{
					"internalType": "uint256",
					"name": "",
					"type": "uint256"
				}
			],
			"stateMutability": "view",
			"type": "function"
		},
		{
			"inputs": [],
			"name": "un_minuto",
			"outputs": [
				{
					"internalType": "uint256",
					"name": "",
					"type": "uint256"
				}
			],
			"stateMutability": "view",
			"type": "function"
		},
		{
			"inputs": [],
			"name": "una_semana",
			"outputs": [
				{
					"internalType": "uint256",
					"name": "",
					"type": "uint256"
				}
			],
			"stateMutability": "view",
			"type": "function"
		}
	]
}