{
	"data": {
		"bytecode": {
			"linkReferences": {},
			"object": "608060405260008060016101000a81548160ff0219169083600381111561002257fe5b021790555034801561003357600080fd5b506102f7806100436000396000f3fe608060405234801561001057600080fd5b50600436106100935760003560e01c8063b46e8d1a11610066578063b46e8d1a14610103578063daf4343f1461012c578063e0be4a2e14610136578063e7260f9a14610164578063e9073c331461016e57610093565b806339feafa3146100985780638a60839f146100c1578063943fad7f146100cb578063b1e92247146100d5575b600080fd5b6100a0610178565b604051808260038111156100b057fe5b815260200191505060405180910390f35b6100c961018e565b005b6100d36101b4565b005b610101600480360360208110156100eb57600080fd5b81019080803590602001909291905050506101da565b005b61010b61020b565b6040518082600181111561011b57fe5b815260200191505060405180910390f35b610134610221565b005b6101626004803603602081101561014c57600080fd5b8101908080359060200190929190505050610247565b005b61016c610277565b005b61017661029c565b005b60008060019054906101000a900460ff16905090565b6002600060016101000a81548160ff021916908360038111156101ad57fe5b0217905550565b6003600060016101000a81548160ff021916908360038111156101d357fe5b0217905550565b8060038111156101e657fe5b600060016101000a81548160ff0219169083600381111561020357fe5b021790555050565b60008060009054906101000a900460ff16905090565b6001600060016101000a81548160ff0219169083600381111561024057fe5b0217905550565b80600181111561025357fe5b6000806101000a81548160ff0219169083600181111561026f57fe5b021790555050565b60008060016101000a81548160ff0219169083600381111561029557fe5b0217905550565b60008060006101000a81548160ff021916908360018111156102ba57fe5b021790555056fea26469706673582212203b154f401dc6a8badf0df56c0e98d6f3a1cc8ff106e3dde58d0fa21bd54c5a2c64736f6c634300060c0033",
			"opcodes": "PUSH1 0x80 PUSH1 0x40 MSTORE PUSH1 0x0 DUP1 PUSH1 0x1 PUSH2 0x100 EXP DUP2 SLOAD DUP2 PUSH1 0xFF MUL NOT AND SWAP1 DUP4 PUSH1 0x3 DUP2 GT ISZERO PUSH2 0x22 JUMPI INVALID JUMPDEST MUL OR SWAP1 SSTORE POP CALLVALUE DUP1 ISZERO PUSH2 0x33 JUMPI PUSH1 0x0 DUP1 REVERT JUMPDEST POP PUSH2 0x2F7 DUP1 PUSH2 0x43 PUSH1 0x0 CODECOPY PUSH1 0x0 RETURN INVALID PUSH1 0x80 PUSH1 0x40 MSTORE CALLVALUE DUP1 ISZERO PUSH2 0x10 JUMPI PUSH1 0x0 DUP1 REVERT JUMPDEST POP PUSH1 0x4 CALLDATASIZE LT PUSH2 0x93 JUMPI PUSH1 0x0 CALLDATALOAD PUSH1 0xE0 SHR DUP1 PUSH4 0xB46E8D1A GT PUSH2 0x66 JUMPI DUP1 PUSH4 0xB46E8D1A EQ PUSH2 0x103 JUMPI DUP1 PUSH4 0xDAF4343F EQ PUSH2 0x12C JUMPI DUP1 PUSH4 0xE0BE4A2E EQ PUSH2 0x136 JUMPI DUP1 PUSH4 0xE7260F9A EQ PUSH2 0x164 JUMPI DUP1 PUSH4 0xE9073C33 EQ PUSH2 0x16E JUMPI PUSH2 0x93 JUMP JUMPDEST DUP1 PUSH4 0x39FEAFA3 EQ PUSH2 0x98 JUMPI DUP1 PUSH4 0x8A60839F EQ PUSH2 0xC1 JUMPI DUP1 PUSH4 0x943FAD7F EQ PUSH2 0xCB JUMPI DUP1 PUSH4 0xB1E92247 EQ PUSH2 0xD5 JUMPI JUMPDEST PUSH1 0x0 DUP1 REVERT JUMPDEST PUSH2 0xA0 PUSH2 0x178 JUMP JUMPDEST PUSH1 0x40 MLOAD DUP1 DUP3 PUSH1 0x3 DUP2 GT ISZERO PUSH2 0xB0 JUMPI INVALID JUMPDEST DUP2 MSTORE PUSH1 0x20 ADD SWAP2 POP POP PUSH1 0x40 MLOAD DUP1 SWAP2 SUB SWAP1 RETURN JUMPDEST PUSH2 0xC9 PUSH2 0x18E JUMP JUMPDEST STOP JUMPDEST PUSH2 0xD3 PUSH2 0x1B4 JUMP JUMPDEST STOP JUMPDEST PUSH2 0x101 PUSH1 0x4 DUP1 CALLDATASIZE SUB PUSH1 0x20 DUP2 LT ISZERO PUSH2 0xEB JUMPI PUSH1 0x0 DUP1 REVERT JUMPDEST DUP2 ADD SWAP1 DUP1 DUP1 CALLDATALOAD SWAP1 PUSH1 0x20 ADD SWAP1 SWAP3 SWAP2 SWAP1 POP POP POP PUSH2 0x1DA JUMP JUMPDEST STOP JUMPDEST PUSH2 0x10B PUSH2 0x20B JUMP JUMPDEST PUSH1 0x40 MLOAD DUP1 DUP3 PUSH1 0x1 DUP2 GT ISZERO PUSH2 0x11B JUMPI INVALID JUMPDEST DUP2 MSTORE PUSH1 0x20 ADD SWAP2 POP POP PUSH1 0x40 MLOAD DUP1 SWAP2 SUB SWAP1 RETURN JUMPDEST PUSH2 0x134 PUSH2 0x221 JUMP JUMPDEST STOP JUMPDEST PUSH2 0x162 PUSH1 0x4 DUP1 CALLDATASIZE SUB PUSH1 0x20 DUP2 LT ISZERO PUSH2 0x14C JUMPI PUSH1 0x0 DUP1 REVERT JUMPDEST DUP2 ADD SWAP1 DUP1 DUP1 CALLDATALOAD SWAP1 PUSH1 0x20 ADD SWAP1 SWAP3 SWAP2 SWAP1 POP POP POP PUSH2 0x247 JUMP JUMPDEST STOP JUMPDEST PUSH2 0x16C PUSH2 0x277 JUMP JUMPDEST STOP JUMPDEST PUSH2 0x176 PUSH2 0x29C JUMP JUMPDEST STOP JUMPDEST PUSH1 0x0 DUP1 PUSH1 0x1 SWAP1 SLOAD SWAP1 PUSH2 0x100 EXP SWAP1 DIV PUSH1 0xFF AND SWAP1 POP SWAP1 JUMP JUMPDEST PUSH1 0x2 PUSH1 0x0 PUSH1 0x1 PUSH2 0x100 EXP DUP2 SLOAD DUP2 PUSH1 0xFF MUL NOT AND SWAP1 DUP4 PUSH1 0x3 DUP2 GT ISZERO PUSH2 0x1AD JUMPI INVALID JUMPDEST MUL OR SWAP1 SSTORE POP JUMP JUMPDEST PUSH1 0x3 PUSH1 0x0 PUSH1 0x1 PUSH2 0x100 EXP DUP2 SLOAD DUP2 PUSH1 0xFF MUL NOT AND SWAP1 DUP4 PUSH1 0x3 DUP2 GT ISZERO PUSH2 0x1D3 JUMPI INVALID JUMPDEST MUL OR SWAP1 SSTORE POP JUMP JUMPDEST DUP1 PUSH1 0x3 DUP2 GT ISZERO PUSH2 0x1E6 JUMPI INVALID JUMPDEST PUSH1 0x0 PUSH1 0x1 PUSH2 0x100 EXP DUP2 SLOAD DUP2 PUSH1 0xFF MUL NOT AND SWAP1 DUP4 PUSH1 0x3 DUP2 GT ISZERO PUSH2 0x203 JUMPI INVALID JUMPDEST MUL OR SWAP1 SSTORE POP POP JUMP JUMPDEST PUSH1 0x0 DUP1 PUSH1 0x0 SWAP1 SLOAD SWAP1 PUSH2 0x100 EXP SWAP1 DIV PUSH1 0xFF AND SWAP1 POP SWAP1 JUMP JUMPDEST PUSH1 0x1 PUSH1 0x0 PUSH1 0x1 PUSH2 0x100 EXP DUP2 SLOAD DUP2 PUSH1 0xFF MUL NOT AND SWAP1 DUP4 PUSH1 0x3 DUP2 GT ISZERO PUSH2 0x240 JUMPI INVALID JUMPDEST MUL OR SWAP1 SSTORE POP JUMP JUMPDEST DUP1 PUSH1 0x1 DUP2 GT ISZERO PUSH2 0x253 JUMPI INVALID JUMPDEST PUSH1 0x0 DUP1 PUSH2 0x100 EXP DUP2 SLOAD DUP2 PUSH1 0xFF MUL NOT AND SWAP1 DUP4 PUSH1 0x1 DUP2 GT ISZERO PUSH2 0x26F JUMPI INVALID JUMPDEST MUL OR SWAP1 SSTORE POP POP JUMP JUMPDEST PUSH1 0x0 DUP1 PUSH1 0x1 PUSH2 0x100 EXP DUP2 SLOAD DUP2 PUSH1 0xFF MUL NOT AND SWAP1 DUP4 PUSH1 0x3 DUP2 GT ISZERO PUSH2 0x295 JUMPI INVALID JUMPDEST MUL OR SWAP1 SSTORE POP JUMP JUMPDEST PUSH1 0x0 DUP1 PUSH1 0x0 PUSH2 0x100 EXP DUP2 SLOAD DUP2 PUSH1 0xFF MUL NOT AND SWAP1 DUP4 PUSH1 0x1 DUP2 GT ISZERO PUSH2 0x2BA JUMPI INVALID JUMPDEST MUL OR SWAP1 SSTORE POP JUMP INVALID LOG2 PUSH5 0x6970667358 0x22 SLT KECCAK256 EXTCODESIZE ISZERO 0x4F BLOCKHASH SAR 0xC6 0xA8 0xBA 0xDF 0xD CREATE2 PUSH13 0xE98D6F3A1CC8FF106E3DDE58D 0xF LOG2 SHL 0xD5 0x4C GAS 0x2C PUSH5 0x736F6C6343 STOP MOD 0xC STOP CALLER "
		},
		"gasEstimates": {
			"creation": {
				"codeDepositCost": "151800",
				"executionCost": "21133",
				"totalCost": "172933"
			},
			"external": {
				"Direcciones()": "1126",
				"Estado()": "1075",
				"abajo()": "21103",
				"arriba()": "21147",
				"derecha()": "21104",
				"encender()": "21119",
				"fijarDirecciones(uint256)": "21258",
				"fijarEstado(uint256)": "21185",
				"izquierda()": "21126"
			}
		},
		"methodIdentifiers": {
			"Direcciones()": "39feafa3",
			"Estado()": "b46e8d1a",
			"abajo()": "daf4343f",
			"arriba()": "e7260f9a",
			"derecha()": "8a60839f",
			"encender()": "e9073c33",
			"fijarDirecciones(uint256)": "b1e92247",
			"fijarEstado(uint256)": "e0be4a2e",
			"izquierda()": "943fad7f"
		}
	},
	"abi": [
		{
			"inputs": [],
			"name": "Direcciones",
			"outputs": [
				{
					"internalType": "enum Ejemplos_enumeraciones.direcciones",
					"name": "",
					"type": "uint8"
				}
			],
			"stateMutability": "view",
			"type": "function"
		},
		{
			"inputs": [],
			"name": "Estado",
			"outputs": [
				{
					"internalType": "enum Ejemplos_enumeraciones.estado",
					"name": "",
					"type": "uint8"
				}
			],
			"stateMutability": "view",
			"type": "function"
		},
		{
			"inputs": [],
			"name": "abajo",
			"outputs": [],
			"stateMutability": "nonpayable",
			"type": "function"
		},
		{
			"inputs": [],
			"name": "arriba",
			"outputs": [],
			"stateMutability": "nonpayable",
			"type": "function"
		},
		{
			"inputs": [],
			"name": "derecha",
			"outputs": [],
			"stateMutability": "nonpayable",
			"type": "function"
		},
		{
			"inputs": [],
			"name": "encender",
			"outputs": [],
			"stateMutability": "nonpayable",
			"type": "function"
		},
		{
			"inputs": [
				{
					"internalType": "uint256",
					"name": "_k",
					"type": "uint256"
				}
			],
			"name": "fijarDirecciones",
			"outputs": [],
			"stateMutability": "nonpayable",
			"type": "function"
		},
		{
			"inputs": [
				{
					"internalType": "uint256",
					"name": "_k",
					"type": "uint256"
				}
			],
			"name": "fijarEstado",
			"outputs": [],
			"stateMutability": "nonpayable",
			"type": "function"
		},
		{
			"inputs": [],
			"name": "izquierda",
			"outputs": [],
			"stateMutability": "nonpayable",
			"type": "function"
		}
	]
}